:10C000005542200135D0085A824542023140000491
:10C010003F4000000F9308249242420220012F83E8
:10C020009F4FECC30002F8233F4042000F930724C8
:10C030009242420220011F83CF430002F923B24003
:10C04000805A2001B0129EC0B01214C3B0123AC37D
:10C05000B01262C3B01238C10E430F43B0121CC1FC
:10C060001E430F43B0121CC17F401900B0125AC3C7
:10C070005F4228003FF010000220F2D229005F4208
:10C0800028003FF020000320F2F0F7FF290032D013
:10C090001800EE3F32D0F000FD3F3040DCC3D2420A
:10C0A000FF105700D242FE105600F2D0410022008D
:10C0B000F2F0BEFF2100F2D22A00F2F0F7FF2900D1
:10C0C000F2F0CFFF2A00F2F0CFFF290030413FF01D
:10C0D0000F003F900A00032C7F50300030417F500A
:10C0E000370030414E4F7E50D0FF7E900A00022C28
:10C0F0004F4E30414E4F7E509FFF7E900600032CE6
:10C100007F50A9FF30414E4F7E50BFFF7E9006000A
:10C11000032C7F50C9FF30417F4330412E93032CC5
:10C120000E5E8E4F1A0230412F93042C0F5F1F4F6B
:10C130001A0230410F433041D2D32200F2F0FEFF09
:10C140002100F24006002600F24006004100F2D035
:10C1500080FF6100F24068006200C2436300E24376
:10C160006400F2F0FEFF6100D2D3010030411F42B3
:10C170000602829F08020420C24304023F4330416A
:10C18000D2D321001F533FF00F00D2430402D24FFD
:10C190000A026700824F0602E2D301000F433041DA
:10C1A0001E4208021E533EF00F001E9206020A2491
:10C1B000CE4F0A02824E0802C29304020520B0123A
:10C1C0006EC130413F4330410F4330410B120A12E0
:10C1D0000A4F0B43053C1B53B012A0C10F9305201F
:10C1E0000E4A0E5B6F4E4F93F6230F4B3A413B4185
:10C1F00030410F120E120D120C120B120A125B427A
:10C200006600C29302021C247B900A0007205F4252
:10C210000002B0125AC3C2430202623C4F4BB0123A
:10C22000E4C04F930B388F111E4200020E5E0E5E6B
:10C230000E5E0E5E0FDE824F0002523CC2430202CF
:10C240007B903F000720D2D321003F40DEC3B012D5
:10C25000CCC1463C7B9064003C20D2D321003B40C3
:10C260001A020A432F4B8F104F4F12C30F1012C3E5
:10C270000F1012C30F1012C30F10B012CEC0B012A5
:10C28000A0C12F4B8F104F4FB012CEC0B012A0C123
:10C290002F4B12C30F1012C30F1012C30F1012C373
:10C2A0000F10B012CEC0B012A0C12F4BB012CEC032
:10C2B000B012A0C11A9304247F402C00B012A0C178
:10C2C0001A532B532A93CE237F400A00B012A0C1E9
:10C2D000073C7B9073000420D24302028243000299
:10C2E0003A413B413C413D413E413F4100130F1229
:10C2F0000E120D120C12B0126EC10F930624F2F042
:10C30000FEFF2100F2F0FDFF01003C413D413E41B6
:10C310003F410013B24010006201B240E2047201DA
:10C32000B240E002600130410F12B250E2047201EB
:10C33000B1C0100002003F410013B24063009201FF
:10C34000B240E0008401B2401002800182439401B7
:10C35000E2D22A00E2D22E0030414F4F824F9401A8
:10C360003041B24064A0B201B2407838B001F2D09E
:10C3700020004A00B2D00300B00130410F120E126B
:10C380000D120C120B121F4220025E421E024D4E75
:10C390008D110D5D3D5022022B4D1C42B4018D4C80
:10C3A00000000F5C0F8B824F20025E537EF08FFFE8
:10C3B00004347E537ED0F0FF5E53C24E1E020E4305
:10C3C000B0121CC1B2F0FDFFB001B2D00300B00149
:0EC3D0003B413C413D413E413F4100130013C3
:0EC3DE0048656C6C6F20576F726C64210A000A
:10FFE0009AC09AC09AC09AC09AC07CC3EEC2F2C1AD
:10FFF0009AC028C39AC09AC09AC09AC09AC000C03A
:040000030000C00039
:00000001FF
