:10C000005542200135D0085A82451E0231400004B5
:10C010003F4000000F93082492421E0220012F830C
:10C020009F4F6EC30002F8233F401E000F9307246A
:10C0300092421E0220011F83CF430002F923B24027
:10C04000805A2001B0129AC0B01210C3B01236C389
:10C05000B01234C10E430F43B01218C11E430F4338
:10C06000B01218C17F401900B01256C35F422800B9
:10C070003FF010000220F2D229005F4228003FF07A
:10C0800020000320F2F0F7FF290032D01800EE3F25
:10C0900032D0F000FD3F30405EC3D242FF10570067
:10C0A000D242FE105600F2D041002200F2F0BEFF54
:10C0B0002100F2D22A00F2F0F7FF2900F2F0CFFFC0
:10C0C0002A00F2F0CFFF290030413FF00F003F90EF
:10C0D0000A00032C7F50300030417F503700304140
:10C0E0004E4F7E50D0FF7E900A00022C4F4E3041C2
:10C0F0004E4F7E509FFF7E900600032C7F50A9FF7D
:10C1000030414E4F7E50BFFF7E900600032C7F5083
:10C11000C9FF30417F4330412E93032C0E5E8E4F7A
:10C120001A0230412F93042C0F5F1F4F1A02304127
:10C130000F433041D2D32200F2F0FEFF2100F24043
:10C1400006002600F24006004100F2D080FF6100A8
:10C15000F24068006200C2436300E2436400F2F010
:10C16000FEFF6100D2D3010030411F420602829FD0
:10C1700008020420C24304023F433041D2D32100CD
:10C180001F533FF00F00D2430402D24F0A02670050
:10C19000824F0602E2D301000F4330411E420802E3
:10C1A0001E533EF00F001E9206020A24CE4F0A02D2
:10C1B000824E0802C29304020520B0126AC13041C7
:10C1C0003F4330410F4330410B120A120A4F0B43D9
:10C1D000053C1B53B0129CC10F9305200E4A0E5B09
:10C1E0006F4E4F93F6230F4B3A413B4130410F12B4
:10C1F0000E120D120C120B120A125B426600C29351
:10C2000002021C247B900A0007205F420002B01249
:10C2100056C3C2430202623C4F4BB012E0C04F9380
:10C220000B388F111E4200020E5E0E5E0E5E0E5E19
:10C230000FDE824F0002523CC24302027B903F005D
:10C240000720D2D321003F4060C3B012C8C1463C92
:10C250007B9064003C20D2D321003B401A020A4369
:10C260002F4B8F104F4F12C30F1012C30F1012C35A
:10C270000F1012C30F10B012CAC0B0129CC12F4BC6
:10C280008F104F4FB012CAC0B0129CC12F4B12C3B7
:10C290000F1012C30F1012C30F1012C30F10B012E1
:10C2A000CAC0B0129CC12F4BB012CAC0B0129CC100
:10C2B0001A9304247F402C00B0129CC11A532B53B4
:10C2C0002A93CE237F400A00B0129CC1073C7B908A
:10C2D00073000420D2430202824300023A413B41F0
:10C2E0003C413D413E413F4100130F120E120D12E1
:10C2F0000C12B0126AC10F930624F2F0FEFF210067
:10C30000F2F0FDFF01003C413D413E413F41001341
:10C31000B24010006201B240E2047201B240E00299
:10C32000600130410F12B250E2047201B1C010003E
:10C3300002003F410013B24063009201B240E000AE
:10C340008401B2401002800182439401E2D22A00AB
:10C35000E2D22E0030414F4F824F94013041001302
:0EC3600048656C6C6F20576F726C64210A0088
:10FFE00096C096C096C096C096C096C0EAC2EEC1B2
:10FFF00096C024C396C096C096C096C096C000C056
:040000030000C00039
:00000001FF
