:10C000005542200135D0085A82454E023140000485
:10C010003F4000000F93082492424E0220012F83DC
:10C020009F4FFAC50002F8233F404E000F930724AC
:10C0300092424E0220011F83CF430002F923B240F7
:10C04000805A2001B012EEC0B01264C3B012F6C420
:10C05000B0123AC5B01288C10E430F43B0126CC182
:10C060001E430F43B0126CC14A437B4019005F422C
:10C070001E026F9312247F900300032C5F931620FF
:10C08000073C7F9010000F247F9020000F20083C79
:10C090004A930B247B500500093C7B500500063C6D
:10C0A0007B50FBFF033C4A43013C5A437B906500B5
:10C0B000032C4B930B24023C7B4064004A930824DE
:10C0C0004F4BB01216C5F2D22900093C7B40050047
:10C0D0004F43B01216C5F2F0F7FF29004A4332D0A1
:10C0E0001800C53F32D0F000FD3F3040EAC5D242D3
:10C0F000FF105700D242FE105600F2D0410022003D
:10C10000F2F0BEFF2100F2D22A00F2F0F7FF290080
:10C11000F2F0CFFF2A00F2F0CFFF290030413FF0CC
:10C120000F003F900A00032C7F50300030417F50B9
:10C13000370030414E4F7E50D0FF7E900A00022CD7
:10C140004F4E30414E4F7E509FFF7E900600032C95
:10C150007F50A9FF30414E4F7E50BFFF7E900600BA
:10C16000032C7F50C9FF30417F4330412E93032C75
:10C170000E5E8E4F1A0230412F93042C0F5F1F4F1B
:10C180001A0230410F433041D2D32200F2F0FEFFB9
:10C190002100F24006002600F24006004100F2D0E5
:10C1A00080FF6100F24068006200C2436300E24326
:10C1B0006400F2F0FEFF6100D2D3010030411F4263
:10C1C0000602829F08020420C24304023F4330411A
:10C1D000D2D321001F533FF00F00D2430402D24FAD
:10C1E0000A026700824F0602E2D301000F4330418A
:10C1F0001E4208021E533EF00F001E9206020A2441
:10C20000CE4F0A02824E0802C29304020520B012E9
:10C21000BEC130413F4330410F4330410B120A123F
:10C220000A4F0B43053C1B53B012F0C10F9305207E
:10C230000E4A0E5B6F4E4F93F6230F4B3A413B4134
:10C2400030410F120E120D120C120B120A125B4229
:10C250006600C29302021C247B900A0007205F4202
:10C260000002B01216C5C2430202623C4F4BB0122C
:10C2700034C14F930B388F111E4200020E5E0E5ECA
:10C280000E5E0E5E0FDE824F0002523CC24302027F
:10C290007B903F000720D2D321003F40ECC5B01275
:10C2A0001CC2463C7B9064003C20D2D321003B4022
:10C2B0001A020A432F4B8F104F4F12C30F1012C395
:10C2C0000F1012C30F1012C30F10B0121EC1B01204
:10C2D000F0C12F4B8F104F4FB0121EC1B012F0C1E2
:10C2E0002F4B12C30F1012C30F1012C30F1012C323
:10C2F0000F10B0121EC1B012F0C12F4BB0121EC1F0
:10C30000B012F0C11A9304247F402C00B012F0C187
:10C310001A532B532A93CE237F400A00B012F0C148
:10C32000073C7B9073000420D24302028243000248
:10C330003A413B413C413D413E413F4100130F12D8
:10C340000E120D120C12B012BEC10F930624F2F0A1
:10C35000FEFF2100F2F0FDFF01003C413D413E4166
:10C360003F410013B24010006201B240E20472018A
:10C37000B240E002600130410F120E120D120C1299
:10C380000B120A12B250E20472015E4220024E5EAB
:10C39000C24E20025F4221024F5FC24F21025D4226
:10C3A00028003DF0100003205ED3C24E20025E4202
:10C3B00028003EF0200003205FD3C24F21023F40FF
:10C3C00020023B4022020D4B0C436E4F4E5ECF4E7F
:10C3D00000005A4228000C9303203AF01000023C5F
:10C3E0003AF020000A9303205ED3CF4E00006E4F38
:10C3F0003EF007003E9007000320DD430000043CB0
:10C400000E930220CD4300001C531F531D532C9349
:10C41000DC231F43B01278C13FF0FFFCC29322021D
:10C4200002243FD00001C293230202243FD0000225
:10C430001E43B0126CC13E4024023F4026024D43D1
:10C440000C436A4E5A930C2403286A933E20273CDF
:10C45000CB9300003C24CF430000DE430000373C78
:10C46000CB93000009200C9302205A43023C7A40EF
:10C4700010004DDACE4300006A4F5A53CF4A0000F5
:10C480007A901E0024280C9302206A43023C7A40D2
:10C4900020004DDACF430000DE530000183CCB9360
:10C4A00000000220CE4300006A4F5A53CF4A0000DA
:10C4B0007A9032000C280C9302206A43023C7A40A6
:10C4C00020004DDACF430000023CCE4300001C5355
:10C4D0001E531F531B532C93B423C24D1E024D9366
:10C4E0000324B1C010000C003A413B413C413D41A6
:10C4F0003E413F410013B24063009201B240E00070
:10C500008401B2401002800182439401E2D22A00E9
:10C51000E2D22E0030410B124B4F824B94011F434D
:10C52000B01278C13FF080FF1E430FDBB0126CC128
:10C530003B4130415F422A023041B24060A0B2012B
:10C54000B2403838B001F2D020004A00B2D0030027
:10C55000B00130410F120E120D120C120B121F42BD
:10C560002C025E4228024D4E8D110D5D3D502E0273
:10C570002B4D1C42B4018D4C00000F5C0F8B824F81
:10C580002C025E537EF08FFF04347E537ED0F0FF8A
:10C590005E53C24E28020E43B0126CC1C2932A02EF
:10C5A0000D24B29023332C02172CC2432A021F43BE
:10C5B000B01278C11E433FF0FF7F0C3CB290E633CF
:10C5C0002C020A28D2432A021F43B01278C11E430C
:10C5D0003FD00080B0126CC1B2D00300B0013B412B
:0CC5E0003C413D413E413F41001300132F
:0EC5EC0048656C6C6F20576F726C64210A00FA
:10FFE000EAC0EAC0EAC0EAC0EAC054C53EC342C2A1
:10FFF000EAC078C3EAC0EAC0EAC0EAC0EAC000C00A
:040000030000C00039
:00000001FF
