:10C000005542200135D0085A82454402314000048F
:10C010003F4000000F9308249242440220012F83E6
:10C020009F4F20C40002F8233F4044000F93072491
:10C030009242440220011F83CF430002F923B24001
:10C04000805A2001B01280C0B012F6C2B0121CC3D8
:10C05000B01260C3B0121AC10E430F43B012FEC03B
:10C060001E430F43B012FEC07F401900B0123CC304
:10C0700032D01800FD3F32D0F000FD3F304010C4F8
:10C08000D242FF105700D242FE105600F2D04100BB
:10C090002200F2F0BEFF2100F2D22A00F2F0F7FFF8
:10C0A0002900F2F0CFFF2A00F2F0CFFF2900304143
:10C0B0003FF00F003F900A00032C7F5030003041CA
:10C0C0007F50370030414E4F7E50D0FF7E900A00A7
:10C0D000022C4F4E30414E4F7E509FFF7E90060007
:10C0E000032C7F50A9FF30414E4F7E50BFFF7E9002
:10C0F0000600032C7F50C9FF30417F4330412E930F
:10C10000032C0E5E8E4F1A0230412F93042C0F5FCA
:10C110001F4F1A0230410F433041D2D32200F2F0B8
:10C12000FEFF2100F24006002600F240060041001A
:10C13000F2D080FF6100F24068006200C2436300F9
:10C14000E2436400F2F0FEFF6100D2D3010030410F
:10C150001F420602829F08020420C24304023F439A
:10C160003041D2D321001F533FF00F00D2430402CD
:10C17000D24F0A026700824F0602E2D301000F434A
:10C1800030411E4208021E533EF00F001E9206026E
:10C190000A24CE4F0A02824E0802C29304020520EE
:10C1A000B01250C130413F4330410F4330410B1278
:10C1B0000A120A4F0B43053C1B53B01282C10F9366
:10C1C00005200E4A0E5B6F4E4F93F6230F4B3A41FC
:10C1D0003B4130410F120E120D120C120B120A12BB
:10C1E0005B426600C29302021C247B900A00072077
:10C1F0005F420002B0123CC3C2430202623C4F4B9A
:10C20000B012C6C04F930B388F111E4200020E5E53
:10C210000E5E0E5E0E5E0FDE824F0002523CC24387
:10C2200002027B903F000720D2D321003F4012C47E
:10C23000B012AEC1463C7B9064003C20D2D32100BA
:10C240003B401A020A432F4B8F104F4F12C30F105F
:10C2500012C30F1012C30F1012C30F10B012B0C0D0
:10C26000B01282C12F4B8F104F4FB012B0C0B0121E
:10C2700082C12F4B12C30F1012C30F1012C30F1025
:10C2800012C30F10B012B0C0B01282C12F4BB01247
:10C29000B0C0B01282C11A9304247F402C00B012A7
:10C2A00082C11A532B532A93CE237F400A00B01227
:10C2B00082C1073C7B9073000420D2430202824378
:10C2C00000023A413B413C413D413E413F41001368
:10C2D0000F120E120D120C12B01250C10F93062441
:10C2E000F2F0FEFF2100F2F0FDFF01003C413D4174
:10C2F0003E413F410013B24010006201B240E204EF
:10C300007201B240E002600130410F12B250E2040B
:10C310007201B1C0100002003F410013B24063003F
:10C320009201B240E0008401B240100280018243D9
:10C330009401E2D22A00E2D22E0030410B124B4F80
:10C34000824B94011F43B0120AC13FF080FF1E438D
:10C350000FDBB012FEC03B4130415F422002304152
:10C36000B24060A0B201B2403838B001F2D0200033
:10C370004A00B2D00300B00130410F120E120D126C
:10C380000C120B121F4222025E421E024D4E8D11F4
:10C390000D5D3D5024022B4D1C42B4018D4C00001C
:10C3A0000F5C0F8B824F22025E537EF08FFF0434AE
:10C3B0007E537ED0F0FF5E53C24E1E020E43B0127B
:10C3C000FEC0C29320020D24B29023332202172C08
:10C3D000C24320021F43B0120AC11E433FF0FF7F39
:10C3E0000C3CB290E63322020A28D24320021F43BB
:10C3F000B0120AC11E433FD00080B012FEC0B2D0BE
:10C400000300B0013B413C413D413E413F410013EF
:02C41000001317
:0EC4120048656C6C6F20576F726C64210A00D5
:10FFE0007CC07CC07CC07CC07CC07AC3D0C2D4C181
:10FFF0007CC00AC37CC07CC07CC07CC07CC000C00C
:040000030000C00039
:00000001FF
