:10C000005542200135D0085A82455402314000047F
:10C010003F4000000F9308249242540220012F83D6
:10C020009F4F74C60002F8233F4054000F9307242B
:10C030009242540220011F83CF430002F923B240F1
:10C04000805A2001B012FAC0B01276C3B0128AC36F
:10C05000B012B4C5B01294C10E430F43B01278C1F0
:10C060001E430F43B01278C14A437B4019005F4220
:10C0700022026F9312247F900300032C5F931C20F5
:10C08000073C7F90100015247F90200015200C3C69
:10C090004A9311247B5005000F3C4A9301204B43E7
:10C0A0007B5005005A43083C4A9306247B50FBFF13
:10C0B000033C4A43013C5A437B906500032C4B935D
:10C0C0000B24023C7B4064004A9308244F4BB0127F
:10C0D00070C3F2D22900093C7B4005004F43B012E7
:10C0E00070C3F2F0F7FF29004A4332D01800BF3F77
:10C0F00032D0F000FD3F304064C6D242FF105700FE
:10C10000D242FE105600F2D041002200F2F0BEFFF3
:10C110002100F2D22A00F2F0F7FF2900F2F0CFFF5F
:10C120002A00F2F0CFFF290030413FF00F003F908E
:10C130000A00032C7F50300030417F5037003041DF
:10C140004E4F7E50D0FF7E900A00022C4F4E304161
:10C150004E4F7E509FFF7E900600032C7F50A9FF1C
:10C1600030414E4F7E50BFFF7E900600032C7F5023
:10C17000C9FF30417F4330412E93032C0E5E8E4F1A
:10C180001A0230412F93042C0F5F1F4F1A023041C7
:10C190000F433041D2D32200F2F0FEFF2100F240E3
:10C1A00006002600F24006004100F2D080FF610048
:10C1B000F24068006200C2436300E2436400F2F0B0
:10C1C000FEFF6100D2D3010030411F420602829F70
:10C1D00008020420C24304023F433041D2D321006D
:10C1E0001F533FF00F00D2430402D24F0A026700F0
:10C1F000824F0602E2D301000F4330411E42080283
:10C200001E533EF00F001E9206020A24CE4F0A0271
:10C21000824E0802C29304020520B012CAC1304106
:10C220003F4330410F4330410B120A120A4F0B4378
:10C23000053C1B53B012FCC10F9305200E4A0E5B48
:10C240006F4E4F93F6230F4B3A413B4130410F1253
:10C250000E120D120C120B120A125B426600C293F0
:10C2600002021C247B900A0007205F420002B012E9
:10C27000AAC3C2430202623C4F4BB01240C14F936B
:10C280000B388F111E4200020E5E0E5E0E5E0E5EB9
:10C290000FDE824F0002523CC24302027B903F00FD
:10C2A0000720D2D321003F4066C6B01228C2463CC8
:10C2B0007B9064003C20D2D321003B401A020A4309
:10C2C0002F4B8F104F4F12C30F1012C30F1012C3FA
:10C2D0000F1012C30F10B0122AC1B012FCC12F4BA5
:10C2E0008F104F4FB0122AC1B012FCC12F4B12C396
:10C2F0000F1012C30F1012C30F1012C30F10B01281
:10C300002AC1B012FCC12F4BB0122AC1B012FCC11D
:10C310001A9304247F402C00B012FCC11A532B53F3
:10C320002A93CE237F400A00B012FCC1073C7B90C9
:10C3300073000420D2430202824300023A413B418F
:10C340003C413D413E413F4100130F120E120D1280
:10C350000C12B012CAC10F930624F2F0FEFF2100A6
:10C36000F2F0FDFF01003C413D413E413F410013E1
:10C37000C24F20023041B24010006201B240E204DC
:10C380007201B240E00260013041B24063009201AC
:10C39000B240E0008401B240100280018243940167
:10C3A000E2D22A00E2D22E0030410B124B4F824BD8
:10C3B00094011F43B01284C13FF080FF1E430FDB86
:10C3C000B01278C13B4130410F120E120D120C1207
:10C3D0000B120A12B250E20472015E4224024E5E57
:10C3E000C24E24025F4225024F5FC24F25025D42CA
:10C3F00028003DF0100003205ED3C24E24025E42AE
:10C4000028003EF0200003205FD3C24F25023F40AA
:10C4100024023B4026020D4B0C436E4F4E5ECF4E26
:10C4200000005A4228000C9303203AF01000023C0E
:10C430003AF020000A9303205ED3CF4E00006E4FE7
:10C440003EF007003E9007000320DD430000043C5F
:10C450000E930220CD4300001C531F531D532C93F9
:10C46000DC231F43B01284C13FF0FFFCC2932602BD
:10C4700002243FD00001C293270202243FD00002D1
:10C480001E43B01278C13E4028023F402A024D436D
:10C490000C436A4E5A930F2406286A9320247A90FC
:10C4A00003004B20343CCB9300004924CF430000D1
:10C4B000DE430000443CCB93000009200C93022093
:10C4C0005A43023C7A4010004DDACE4300006A4FD6
:10C4D0005A53CF4A00007A901E0031280C3CCB936F
:10C4E00000000220CE4300006A4F5A53CF4A00009A
:10C4F0007A90320024280C9302206A43023C7A404E
:10C5000020004DDACF430000DE530000183CCB93EF
:10C5100000000220CE4300006A4F5A53CF4A000069
:10C520007A9019000C280C9302206A43023C7A404E
:10C5300020004DDACF430000023CCE4300001C53E4
:10C540001E531F531B532C93A423C24D22025F4240
:10C5500020025E421E024F9E1B245D422C025D5350
:10C56000C24D2C027D9003001520C2432C024E9F29
:10C57000032C5E53C24E1E025E421E024F9E032CCF
:10C580007E53C24E1E025F421E02B012AAC3023C7C
:10C59000C2432C02C29322020324B1C010000C003B
:10C5A0003A413B413C413D413E413F4100135F42E6
:10C5B00030023041B24060A0B201B2403838B00120
:10C5C000F2D020004A00B2D00300B00130410F1277
:10C5D0000E120D120C120B121F4232025E422E027C
:10C5E0004D4E8D110D5D3D5034022B4D1C42B4015A
:10C5F0008D4C00000F5C0F8B824F32025E537EF039
:10C600008FFF04347E537ED0F0FF5E53C24E2E0265
:10C610000E43B01278C1C29330020D24B29023337E
:10C620003202172CC24330021F43B01284C11E4392
:10C630003FF0FF7F0C3CB290E63332020A28D2432F
:10C6400030021F43B01284C11E433FD00080B0129D
:10C6500078C1B2D00300B0013B413C413D413E4175
:06C660003F41001300132E
:0EC6660048656C6C6F20576F726C64210A007F
:10FFE000F6C0F6C0F6C0F6C0F6C0CEC54AC34EC2D3
:10FFF000F6C0C8C3F6C0F6C0F6C0F6C0F6C000C072
:040000030000C00039
:00000001FF
