:10C000005542200135D0085A82451E0231400004B5
:10C010003F4000000F93082492421E0220012F830C
:10C020009F4F30C30002F8233F401E000F930724A8
:10C0300092421E0220011F83CF430002F923B24027
:10C04000805A2001B0127CC0B012DCC2B012F8C21B
:10C05000B01200C10E430F43B012E4C01E430F43A1
:10C06000B012E4C07F401900B01218C332D01800DB
:10C07000FD3F32D0F000FD3F304020C3D242FF10E0
:10C080005700D242FE105600F2D041002200F2F0DA
:10C09000BEFF210030413FF00F003F900A00032C0B
:10C0A0007F50300030417F50370030414E4F7E503E
:10C0B000D0FF7E900A00022C4F4E30414E4F7E50F2
:10C0C0009FFF7E900600032C7F50A9FF30414E4F0A
:10C0D0007E50BFFF7E900600032C7F50C9FF304189
:10C0E0007F4330412E93032C0E5E8E4F1A02304157
:10C0F0002F93042C0F5F1F4F1A0230410F43304122
:10C10000D2D32200F2F0FEFF2100F240060026000A
:10C11000F24006004100F2D080FF6100F24068006A
:10C120006200C2436300E2436400F2F0FEFF61007C
:10C13000D2D3010030411F420602829F0802042030
:10C14000C24304023F433041D2D321001F533FF08A
:10C150000F00D2430402D24F0A026700824F060248
:10C16000E2D301000F4330411E4208021E533EF04D
:10C170000F001E9206020A24CE4F0A02824E0802C7
:10C18000C29304020520B01236C130413F43304112
:10C190000F4330410B120A120A4F0B43053C1B534D
:10C1A000B01268C10F9305200E4A0E5B6F4E4F937D
:10C1B000F6230F4B3A413B4130410F120E120D1244
:10C1C0000C120B120A125B426600C29302021C247C
:10C1D0007B900A0007205F420002B01218C3C243DE
:10C1E0000202623C4F4BB012ACC04F930B388F1120
:10C1F0001E4200020E5E0E5E0E5E0E5E0FDE824F6F
:10C200000002523CC24302027B903F000720D2D37F
:10C2100021003F4022C3B01294C1463C7B90640091
:10C220003C20D2D321003B401A020A432F4B8F10EF
:10C230004F4F12C30F1012C30F1012C30F1012C3AF
:10C240000F10B01296C0B01268C12F4B8F104F4F15
:10C25000B01296C0B01268C12F4B12C30F1012C398
:10C260000F1012C30F1012C30F10B01296C0B012ED
:10C2700068C12F4BB01296C0B01268C11A93042443
:10C280007F402C00B01268C11A532B532A93CE233F
:10C290007F400A00B01268C1073C7B907300042005
:10C2A000D2430202824300023A413B413C413D41BC
:10C2B0003E413F4100130F120E120D120C12B0122C
:10C2C00036C10F930624F2F0FEFF2100F2F0FDFFCD
:10C2D00001003C413D413E413F410013B24010004E
:10C2E0006201B240E2047201B240E00260013041FA
:10C2F000B1C0100000000013B24063009201B240D0
:10C30000E0008401B2401002800182439401E2D235
:10C310002A00E2D22E0030414F4F824F940130412B
:02C32000001308
:0EC3220048656C6C6F20576F726C64210A00C6
:10FFE00078C078C078C078C078C078C0B6C2BAC1CE
:10FFF00078C0F0C278C078C078C078C078C000C03F
:040000030000C00039
:00000001FF
